:020000022000DC
:106000000000042065DA0800A5DA080021ED080088
:10601000A9DA0800ABDA0800ADDA080000000000D9
:10602000000000000000000000000000F9D8080097
:10603000B1DA08000000000019D90800B5DA08003C
:1060400065DC0800B7DA0800A9B4080085D70600A7
:10605000B7DA0800B7DA080045B70800B7DA080071
:10606000B7DA0800B7DA0800B7DA0800B7DA0800CC
:10607000B7DA0800B7DA0800B7DA0800B7DA0800BC
:10608000B7DA080071D60800B7DA0800B7DA0800F6
:10609000B7DA0800B7DA0800B5960800B7DA0800E2
:1060A000B7DA0800B7DA0800B7DA0800B7DA08008C
:1060B000B7DA0800B7DA08000000000000000000AE
:1060C000B7DA0800B7DA0800B7DA080005E3080015
:1060D000B7DA0800B7DA0800B7DA0800A56C0200E2
:1060E000B9B40800B7DA0800B7DA08000000000009
:1060F00000000000B7DA08000000000019E3080003
:10610000000000000000000000000000000000008F
:10611000000000000000000000000000000000007F
:10612000000000000000000000000000000000006F
:10613000000000000000000000000000000000005F
:10614000000000000000000000000000000000004F
:10615000000000000000000000000000000000003F
:10616000000000000000000000000000000000002F
:10617000000000000000000000000000000000001F
:10618000000000000000000000000000000000000F
:1061900000000000000000000000000000000000FF
:1061A00000000000000000000000000000000000EF
:1061B00000000000000000000000000000000000DF
:1061C00000000000000000000000000000000000CF
:1061D00000000000000000000000000000000000BF
:1061E00000000000000000000000000000000000AF
:1061F000000000000000000000000000000000009F
:1062000010B5054C237833B9044B13B10448AFF3F0
:1062100000800123237010BDF871002000000000F1
:1062200060450E0008B5034B1BB103490348AFF3AB
:10623000008008BD00000000FC71002060450E00D9
:10624000154B002B08BF134B9D46A3F5803A002148
:106250008B460F461348144A121A95F03CFB0F4B1D
:10626000002B00D098470E4B002B00D09847002001
:10627000002104000D000D48002802D00C48AFF3A7
:10628000008095F0F5F82000290067F02DFC94F0CF
:1062900049FC00BF000008000000042000000000CE
:1062A00000000000F8710020C83A01200000000042
:1062B0000000000008B50146014800F0EDFA08BDF5
:1062C0003072002038B5064B1D780024AC4205D250
:1062D000204600F0E9FD0134E4B2F7E738BD00BF25
:1062E0002C7200202DE9F04F95B08146984601921E
:1062F000002A00F0A480594B93F81C41A21C83F89B
:106300001C2193F81D61751CEDB246F080066A1CD5
:1063100083F81D2145F0800593F81E717A1C83F8DF
:106320001E213C2200210DF1120095F0D4FA4FF00D
:10633000080A8DF80CA00B238DF80D3002238DF880
:106340000F308DF810308DF811304FF0090E8DF8A8
:1063500014E004208DF815004FF0010C8DF818C0E2
:106360008DF819308DF81A3005228DF81D20242162
:106370008DF81E104FF0200B8DF820B08DF821C045
:106380008DF822208DF823108DF824C08DF8270079
:106390008DF828108DF829308DF82A308DF82B20B3
:1063A0008DF82C1006218DF82D1007218DF8301056
:1063B0008DF831204FF0030C8DF833C08DF834A0E8
:1063C0004FF0100C8DF836C08DF837E08DF838009E
:1063D0008DF83B300A208DF83C008DF840108DF888
:1063E00041208DF8433040208DF844008DF847104F
:1063F0008DF848208DF84A308DF84B008DF80E400E
:106400008DF8164099F814308DF81C30631CDBB2FF
:106410008DF826308DF82E408DF82F308DF83260B3
:106420008DF839308DF842708DF84950019B9BB141
:10643000B8F1410F08D8002015B0BDE8F08F002753
:106440003D463E463C466CE74224224603A9184698
:1064500095F01DFA2046EFE74220EDE7307200206C
:10646000A0F11000FFF73EBF10B582B002AB03F8F9
:10647000011D0268546801221946A04702B010BDF0
:10648000407DFF2809D010B500F0D6FC044608B1C5
:10649000204610BD68F008F9FAE700207047407DFB
:1064A000FF280BD000B583B00DF1070100F0EEFC22
:1064B00038B19DF8070003B05DF804FB4FF0FF30E2
:1064C00070474FF0FF30F6E7407DFF280FD000B552
:1064D00083B001220DF1070100F0BCFC20B19DF852
:1064E000070003B05DF804FB4FF0FF30F9E74FF011
:1064F000FF307047407DFF2803D008B500F0D4FC82
:1065000008BD7047F8B5437DFF2B18D006460D46F1
:106510001746144603E0381BF8BD68F0C5F8002C98
:10652000F9D0707D00F058FC0028F4D022462946AE
:10653000707D00F019FD0544241AF0D0EDE700202D
:10654000EAE7407DFF2803D008B500F031FD08BD23
:1065500000207047002242604FF47A71816002751A
:10656000044A02F10801016030320261FF224275E3
:10657000704700BFF0390C00012800D0704708B503
:106580004FF6FF73994200D008BD0248FFF7E2FFC3
:10659000FAE700BF14720020437DFF2B00D0704744
:1065A000094B1B78002BFAD110B5591C064A117003
:1065B000437500F110040549204600F0FDF921461D
:1065C000034800F047F910BD2C720020E0390C00A0
:1065D0003072002008B5FFF7DFFF08BD10B5044694
:1065E000044800F0EBF8044B00221A70FF23637597
:1065F00010BD00BF307200202C72002010B5407D0D
:10660000FF2806D000F0E8FB044618B968F04CF803
:1066100000E00024204610BD01B900B1704700B56C
:1066200083B0694600F0F8FB009BB3F5966F02D08B
:1066300003B05DF804FB00F04DFBF9E708B54FF639
:10664000FF710120FFF798FF08BD70B44FF6FD738E
:106650000B60047804F14003DBB2012B59D9F42C10
:106660005AD814F0800F0ED101260122964222DD65
:10667000835C03F0C005802D54D103F03F0343EA4F
:1066800084140132F2E704F0E003C02B0BD004F0D5
:10669000F003E02B0BD004F0F803F02B3FD104F013
:1066A00007040426E1E704F01F040226DDE704F0F6
:1066B0000F040326D9E7012E0ED0022E11D0032E8F
:1066C00017D0042E1DD0A4F55843B3F5006F2CD37A
:1066D0000C6070B270BC70477F2CEED94FF0FF3069
:1066E000F8E7A4F18003B3F5F06FE8D34FF0FF3083
:1066F000F0E7A4F50063B3F5784FE2D34FF0FF3035
:10670000E8E7A4F58033B3F5801FDCD34FF0FF300A
:10671000E0E74FF0FF30DDE74FF0FF30DAE74FF012
:10672000FF30D7E74FF0FF30D4E74FF0FF30D1E72D
:106730002DE9F04182B006460F46904600252C46D2
:1067400013E0013411E0691C414521DAA3F58033DF
:1067500001939A0AA2F5205227F81520C3F30903E2
:106760000235A3F5105327F811303019335D7BB192
:1067700001A9FFF76AFF0028E3DB0444019BB3F59E
:10678000803FE0D2454503D027F815300135ECE7CE
:10679000284602B0BDE8F08190F850310B2B08D8A4
:1067A00051B15A1C80F8502103F1480240F82210E0
:1067B00000E00023184670470023FBE7F0B589B0DE
:1067C0000446214F03AD3E460FCE0FC533682B80E4
:1067D000254603AE0FCE0FC533682B806D4607F1FB
:1067E000140393E8070003C504F118056B4603CBB7
:1067F000A061E16184F8202065614FF48073A4F802
:106800001A310923A4F81831002584F81C510123FA
:1068100084F81E3184F81D312022294604F5987031
:1068200095F059F840F20943C4F82031074BC4F8F9
:106830002431074BC4F82831C4F82C51042384F8C0
:10684000503109B0F0BD00BF243A0C00543A0C009E
:10685000603A0C0038B5044608466169B4F818215E
:10686000B4F81A319B1A05682D689BB20A4494F853
:106870001C11A84768B10346B4F81801184480B247
:10688000A4F818016369588094F81C211A7101203A
:1068900038BD0020FCE7000070B504460E46FFF747
:1068A0008DFFEF232371022363710125A5714FF43E
:1068B000E1310448FFF770FE304600F0F9F9284650
:1068C00070BD00BF14720020F0B589B00D46D0F83D
:1068D0002C0130B120220231FFF72AFFC0B209B0EB
:1068E000F0BD684600F0FAF90746002601E00136DF
:1068F000F6B2BE421DD20024012CF8D80E4B0FCBAD
:106900000DF1200C0CE90F006346334413F8203CD2
:10691000A200134103F00F0372000132C4F1010120
:106920000A44634413F8103C25F812300134E4B2F1
:10693000E2E77800C0B2D2E7443A0C0010B5044652
:1069400081B10B4603291BD090F850218A421CD9F3
:106950004833202200F5AA7150F82300FFF7E8FE23
:10696000C0B204E0D0F82031A0F854310120431C1B
:106970005B0043F44073A4F8523104F5A97010BDD4
:1069800000F5A971FFF7A0FFF1E70020F7E700008D
:106990000048704730720020014B5869704700BFB3
:1069A0003072002008B50A4601460248FFF7C6FFCC
:1069B00008BD00BF3072002010B504460248FFF742
:1069C000EBFE207110BD00BF30720020034B53F866
:1069D00020300BB1D868704700207047C473002086
:1069E00070B5094C54F8200050B1066956B11D46E7
:1069F00014460846BDF810302A462146B04770BDFF
:106A00000020FCE70020FAE7C473002070B5074CB3
:106A100054F8200048B146693EB11D461446084668
:106A2000BDF810302A462146B04770BDC47300201F
:106A30000020704790F860007047000008B5044BD4
:106A4000186810B1FFF7F6FF08BD0020FCE700BF93
:106A5000CC7300202DE9F8431E4D2C6894B32C26EE
:106A600006FB0046376A7FB32C2606FB0046766A93
:106A700066B32C2505FB0044A46A4CB39946154621
:106A80008846384697F06CF80246072800D9082255
:106A90003946404694F0FBFE304697F061F80246D6
:106AA0000F2800D910223146284694F0F0FE2046E7
:106AB00097F056F80246032800D90422214648469A
:106AC00094F0E5FEBDE8F883034FCDE7034ED0E731
:106AD000034CD3E7CC730020783A0C00843A0C00C6
:106AE000943A0C0038B5114B1D68E5B104462C23CF
:106AF00003FB00535B692BB198472C2303FB045520
:106B000085F83200094B1A682C2303FB042393F801
:106B100032500DB1284638BD00233A2202212046CA
:106B200001F08CF8F6E70025F4E700BFCC730020F5
:106B3000074B1B6853B110B42C2404FB0030C36A0C
:106B40000B60038E13805DF8044B7047704700BFE5
:106B5000CC73002008B500232022052101F06EF837
:106B60004FF0FF3008BD000038B5094C246854B11F
:106B70002C2505FB0044E5693DB1144608461A463C
:106B80002146A84738BD0120FCE70120FAE700BFF5
:106B9000CC7300200A4A12685AB138B50C462C2131
:106BA00001FB002295683DB119462046049AA8478A
:106BB00038BD4FF0FF3070474FF0FF30F8E700BFAF
:106BC000CC7300200A4A12685AB138B50C462C2101
:106BD00001FB0022D5683DB119462046049AA8471A
:106BE00038BD4FF0FF3070474FF0FF30F8E700BF7F
:106BF000CC73002008B5054B1B682BB12C2202FB7F
:106C00000030036903B1984708BD00BFCC73002072
:106C100008B5074B1B6833B12C2202FB0030836997
:106C20001BB1984708BD0120FCE70120FAE700BF2F
:106C3000CC73002010B582B04FF08043D3F83844B5
:106C400002A8002300F8043D66F08EFF02A8084B5E
:106C500040F8083D66F0FAFF66F0C8FF14F0010F37
:106C600001D102B010BD002005F0ECF9F9E700BF3A
:106C7000756C020008B505F0E5F908BD08B5084BCC
:106C8000402283F82723002003F05CFCFFF7D2FFAB
:106C900000214FF0FF3004F00BF9FFF713FBF7E78B
:106CA00000E100E008B5002004F09EFF08BD0000F0
:106CB00000B583B00023019303220092C822034948
:106CC000034865F041FE03B05DF804FB983A0C0000
:106CD0007D6C020008B568F003F908BD4FF08052E2
:106CE000536E1BBA0360136E1BBA436008207047D3
:106CF00000487047A03A0C00214B1B68002B37D08E
:106D0000012901D00120704710B511461478C4F351
:106D10004114012C18D0022C2CD15278012A03D016
:106D2000022A07D0012026E09A692AB3137804F0DA
:106D300045FA20E08B88072B01D000201BE0114A88
:106D4000138904F03BFA16E05278222A01D0012080
:106D500011E04A88003218BF01225A7504F012FA75
:106D6000074B1A68D3694BB1507D9847012002E068
:106D700000207047002010BD0020FCE70120FAE74A
:106D8000D07300200460002038B5044600F11005DF
:106D9000284603F0A6F93F2802D80023184638BD3C
:106DA000E178002003F0B2FD03460028F6D0284623
:106DB00003F097F93F2805D8E178002003F0BAFDE9
:106DC0000023EBE7402304F53672E178002003F05E
:106DD000C5FD0346E2E7000010B5044603F09AFB48
:106DE00060B900239BB10B4B4FF4567202FB043485
:106DF000237913F0010F08D1002009E003F092FB82
:106E000008B90123EEE70023ECE7012000E00020B1
:106E100010BD00BFD4730020064A4FF4567303FB25
:106E2000002000F10803806808609A889B798A80B6
:106E30008B717047D473002008B54FF4567303FB71
:106E400000F01030024B184403F02FF908BD00BFCA
:106E5000D473002038B50C4C4FF4567303FB00F08C
:106E60002518103020444FF6FE739A4208D892B28B
:106E700003F04DF904462846FFF786FF204638BD4B
:106E80004FF6FF72F4E700BFD473002008B54FF44B
:106E9000567303FB00F01030024B184403F03CF92A
:106EA00008BD00BFD473002070B5054603F032FB67
:106EB00018B9002343B9002070BD03F033FB08B9B3
:106EC0000123F7E70023F5E74FF4567303FB05F3BF
:106ED0002033234C1C440434204603F0E6F808B960
:106EE0000020E9E71E4A4FF4567303FB0523997807
:106EF000002003F00BFD08B90020DDE74FF45673C6
:106F000003FB05F303F54673154E1E44402231463C
:106F1000204603F0FCF80446A0B1114B4FF4567024
:106F200000FB0530234632468178002003F016FD31
:106F300030B90C4B1B6813F0010F0ED000BEBBE73D
:106F40002046B9E706484FF4567303FB05008178E5
:106F5000002003F0EFFC0020AEE70020ACE700BF0C
:106F6000D4730020F0ED00E070B505464FF4567480
:106F700004FB00F404F120030C4C1C4404344FF6D1
:106F8000FE739A420BD892B2204603F0DEF8064612
:106F9000204603F08AF83F2804D8304670BD4FF6EB
:106FA000FF72F1E72846FFF77FFFF6E7D473002072
:106FB00008B54FF4567303FB00F02030024B184421
:106FC000043003F08EF808BDD47300202DE9F0439F
:106FD00083B04FF456720021264894F07CFC0026C2
:106FE00016B103B0BDE8F083224F4FF4567404FB92
:106FF00006F43D19FF236B714FF4E133AB604FF0A2
:10700000000885F80C8085F80D800823AB7304F127
:10701000380104F11000CDF8008001234FF4807294
:107020003944384403F00AF804F59C7104F1200057
:1070300038444FF00109CDF800904B464FF4807270
:107040003944043002F0FAFF04F50E713944484621
:1070500065F0B4F8C5F81C80286204F52271394443
:10706000484665F0ABF82863C5F834804E44F6B264
:10707000B6E700BFD473002070B5002606B170BD1E
:107080000D4C4FF4567505FB06F56219002363514C
:10709000137105F11000204403F05CF820352C44F6
:1070A0000434204603F056F80121204603F072F81C
:1070B0000136F6B2E2E700BFD4730020F0B583B02A
:1070C0004B79022B03D00024204603B0F0BD8B790E
:1070D000022B01D00024F7E700233BB10026AEB11C
:1070E0008B7833700D780D4409241BE01E462F4F1A
:1070F0004FF4567404FB0374A47814B10133DBB26B
:10710000EBE74FF4567404FB0676E8E7284B1B6860
:1071100013F0010F44D000BE0024D5E72B781C44A7
:10712000A4B21D446B78242B01D19442F6D90746B2
:10713000052B09D06B78042B02D16B790A2B16D062
:107140003046FFF721FEBFE7294603F071FB38B94F
:10715000174B1B6813F0010F24D000BE0024B3E7C7
:10716000AB7873702B781C44A4B21D44E2E72978F5
:107170000C44A4B2B31C0193F31C009302231A46DF
:107180002944384603F082FB38B9094B1B6813F0D9
:10719000010F09D000BE002496E70E34A4B2CFE759
:1071A000002491E700248FE700248DE7D4730020AA
:1071B000F0ED00E0F8B5137803F06003202B01D068
:1071C0000020F8BD3D4E0025002D6DD13478938808
:1071D0009C4204D00135EDB206F55676F4E714462C
:1071E0005378203B032B61D8DFE803F0021A264BCB
:1071F000012903D0032909D00120E2E7072306F182
:107200000802214603F0DAFF0120DAE72C4B002BBD
:107210004ED006F108012846AFF300800120D0E7E8
:10722000012901D00120CCE7072306F108022146FD
:1072300003F0C4FF0120C4E7012903D0032906D0CD
:107240000120BEE7214603F09DFF0120B9E76388D6
:1072500003F00102002A14BF01240024C3F34007F5
:1072600033710CBF0121002106F1240002F092FFCE
:10727000144BFBB13A4621462846FFF7CDF90120D1
:107280009FE7012903D0032906D0012099E7214671
:1072900003F078FF012094E70B4B6BB1618828461F
:1072A000AFF3008001208CE700208AE7002088E708
:1072B000012086E7012084E7012082E7D4730020C3
:1072C0000000000019660200000000002DE9F047F0
:1072D000002444B1ACB1404B1B6813F0010F75D0D2
:1072E00000BE002417E03D4A4FF4567505FB042507
:1072F000EA788A42EED0AA788A42EBD00134E4B22E
:10730000E7E71F460E468146EB788B4206D0AB7806
:10731000B34236D001242046BDE8F08705F1100ABB
:10732000BAB205F53671504602F00FFF2C4BD3B1BF
:107330006B79FF2B17D04FF0000801E008F101082E
:10734000B84510D26A7905EB080393F8D8329A420F
:10735000F4D1504602F0BCFE0028EFD169792046F6
:10736000AFF30080EAE71F4B1BB1504602F0B0FEBE
:1073700018B12846FFF708FDC9E72046AFF30080A3
:10738000F7E7194B13B12046AFF300802046FFF713
:107390008BFD08B10124BEE705F1240002F085FE53
:1073A000B0B9BFB117F03F0F01D00124B3E7A978FE
:1073B000484603F0ABFA044608B90124ABE70023C2
:1073C0001A46A978484603F0C9FAA4E70024A2E7C0
:1073D0000124A0E701249EE7F0ED00E0D473002033
:1073E00000000000000000000000000008B54FF49D
:1073F0008C720021014894F06EFA08BD2C770020B1
:1074000008B50020FFF7F2FF08BD00002DE9F041AC
:1074100082B04B79032B04D00024204602B0BDE893
:10742000F0810C79C4EBC404A4B21234A4B2944227
:107430000BD9384B1B6813F0010F63D000BE00243A
:10744000EBE78C2202FB05650EE00023012B0AD836
:107450001D46314E8C2202FB03625278002AF0D086
:107460000133DBB2F2E7002565B10B78CE187278F4
:10747000212A0FD0274B1B6813F0010F46D000BE06
:107480000024CAE7234B1B6813F0010F3CD000BE59
:107490000024C2E70F468046C5F88860C95C3A7987
:1074A0006B1C0193AB1C00930323314403F0EEF9F2
:1074B00038B9184B1B6813F0010F29D000BE002407
:1074C000ABE7BB79012B1AD001232B71BB782B7052
:1074D000D5F88830B3F80730EB80A97800299CD024
:1074E000402305F14802404603F038FA002894D1C1
:1074F000084B1B6813F0010F8FD000BE8DE7FB799E
:10750000EB70E1E7002488E7002486E7002484E7A5
:10751000002482E7F0ED00E02C7700202DE9F04117
:1075200082B0167806F01F03012B04D00023184602
:1075300002B0BDE8F0819588EDB20024012C09D895
:107540008C2303FB04F3904FFB5C9D4203D001347A
:10755000E4B2F3E7FF24012C01D90023E7E7154645
:107560008046274616F0600630D1012901D001235C
:10757000DDE753881B0A5278062A03D0062A12D068
:107580000023D4E7212BF9D17F4A8C2303FB042766
:10759000D7F88820002A00F0EE801378294603F0FF
:1075A0000DFE0346C3E7222B01D00023BFE7204690
:1075B000FFF70CFA744A8C2303FB0727FB8802466B
:1075C0002946404603F0FAFD0123B0E7202E01D002
:1075D0000023ACE75378013B0A2B00F2CE80DFE8B2
:1075E00003F00693A2CCCCCCCCCC4579B1000129D8
:1075F00001D001239BE76B881A0A634E8C2000FBA5
:1076000004F008303718B5F806E0F446BEF1400F34
:1076100028BF4FF0400C13F0FF010AD0BEF1010F5C
:107620001AD97B1C31540CF1FF3C1FFA8CFC01264B
:1076300001E03B460026CDF800C02046FFF7D0F918
:1076400033189BB25BB9514B1B6813F0010F00F06C
:10765000968000BE00236AE73B460026EBE73A46E9
:107660002946404603F0AAFD012360E7012903D023
:10767000032911D001235AE7EB88402B01D90023BD
:1076800055E78C2202FB04F248323F490A4429465E
:1076900003F094FD01234AE769880A0A3A4E8C20D8
:1076A00000FB04F048303318EF883D46402F28BFD8
:1076B000402511F0FF0107D0012F05D9305C884229
:1076C00002D10133013DADB200952046FFF79EF98E
:1076D00001232CE7012901D0012328E76988090A41
:1076E000294A8C2303FB04277971294B33B12046A7
:1076F000AFF30080034600283FF419AF2946404607
:1077000003F040FD012312E7012901D001230EE718
:107710001D4B8C2202FB043201230532294603F063
:107720004DFD012303E7012901D00123FFE6164B9C
:107730008C2202FB043201230432294603F03EFD71
:107740000123F4E6012903D0032906D00123EEE644
:10775000294603F017FD0123E9E66988C9B20A4BFF
:107760008C2202FB043739710A4B53B12046AFF328
:1077700000800123DBE60023D9E60023D7E60023BF
:10778000D5E60123D3E600BF2C770020F0ED00E022
:107790000000000000000000F0B583B0264D00247A
:1077A000012C0CD8244D8C2606FB0455AE788E4255
:1077B00005D06E788E4202D00134E4B2F0E7012C9D
:1077C00009D91E4B1B6813F0010F31D000BE0023F6
:1077D000184603B0F0BD06466A788A4204D0AA78FB
:1077E0008A420BD00123F3E7154A1AB39AB205F186
:1077F00008012046AFF300800123E9E705F14807BF
:107800009BB200933B46002211462046FFF7FEF84C
:1078100040233A46A978304603F0A0F803460028F2
:10782000D6D1064A126812F0010FD1D000BECFE7C0
:107830000023CDE70123CBE72C770020F0ED00E01B
:107840000000000038B5044600F11005284602F09B
:1078500048FC3F2800D838BDA178002003F056F836
:107860000028F8D0284602F03CFC3F2804D8A17834
:10787000002003F05FF8EEE7402304F5EC72A178F6
:10788000002003F06BF8E6E770B5044600F124052C
:10789000284602F00AFC08B9002070BD617800207B
:1078A00003F034F808B90020F7E704F50676402223
:1078B0003146284602F02BFC054678B10346324695
:1078C0006178002003F04AF830B9084B1B6813F0C8
:1078D000010F09D000BEE0E72846DEE7617800200E
:1078E00003F028F80020D8E70020D6E7F0ED00E00C
:1078F0002DE9F04182B04FF4167200211E4893F03A
:10790000EAFF002515B102B0BDE8F0814FF416740E
:1079100004FB05F404F13801174F04F110004FF097
:107920000008CDF80080012380223944384402F059
:1079300085FB04F1B80104F120003844CDF8008043
:10794000012380223944043002F078FB04F59C7155
:107950003944012064F032FC3E19C6F81C803062C4
:1079600004F5C4713944012064F028FC3063C6F882
:1079700034800135EDB2C5E78837012070B50025A8
:1079800005B170BD4FF4167404FB05F40A4EA2193C
:107990000023A35153609360D36004F1100030447E
:1079A00002F0D8FB04F120003044043002F0D2FB96
:1079B0000135EDB2E4E700BF883701202DE9F0473B
:1079C0004B79012B03D000242046BDE8F0878B794A
:1079D000012B01D00024F7E7CB79002B7AD10D7869
:1079E000ABB20D4403E029780B449BB20D44697897
:1079F000242901D19342F6D9042901D00024E3E7D8
:107A00006979012901D00024DEE7A979032901D091
:107A10000024D9E7E97900295ED169B100270FB3C5
:107A200016468146AA783A7095F8008043449CB285
:107A3000A8444FF0000A34E00F462A4E4FF4167463
:107A400004FB016464782CB94FF4167404FB0164E0
:107A5000A47814B10131C9B2DFE74FF4167404FB06
:107A60000767DCE7204B1B6813F0010F36D000BE20
:107A70000024A9E71C4B1B6813F0010F30D000BE97
:107A80000024A1E77B7098F800301C44A4B298440D
:107A90000AF1010A5FFA8AFA98F800301C44A4B28D
:107AA00098442B79534511D9B4420FD898F8013036
:107AB000052BF1D14146484602F0BAFE0028D9D044
:107AC00098F80230DA09DDD1BB70DCE73846FFF701
:107AD000B9FE79E7002477E7002475E7002473E70F
:107AE000002471E788370120F0ED00E000207047A6
:107AF000F8B5002444B1ACB12B4B1B6813F0010F57
:107B00004CD000BE002416E04FF41676274D06FB3D
:107B10000455AE788E42EED06E788E42EBD00134B2
:107B2000E4B2E7E71F460646AB788B4205D06B7898
:107B30008B4213D001242046F8BDBAB205F5EC7192
:107B400005F1100002F001FB194B13B12046AFF311
:107B500000802846FFF776FE0124ECE72846FFF771
:107B600093FE08B10124E6E705F1240002F09DFA36
:107B7000B0B9BFB117F03F0F01D00124DBE769783E
:107B8000304602F0C3FE044608B90124D3E70023BF
:107B90001A466978304602F0E1FECCE70024CAE7D5
:107BA0000124C8E70124C6E7F0ED00E08837012092
:107BB00000000000002380F830304363836380F8C6
:107BC0003C3080F83D3080F83E307047C38A5BBA65
:107BD0009BB2826812B9EBB900207047C17B28299B
:107BE00007D02A2920D023B3B2FBF3F31BB3002024
:107BF000704710B4047BE4090ED02A2905D06BB17C
:107C0000B2FBF3F373B1002009E0017BC909F6D0A0
:107C1000022004E002207047022000E001205DF80D
:107C2000044B70470220FAE7017BC909DBD0022030
:107C3000704701207047022070470000044880F818
:107C40003C1080F83D2080F83E300120704700BF96
:107C5000447A0020F0B58DB0054614461E460B78D8
:107C6000252B00F24981DFE813F026004701470188
:107C70000C014701470147014701470147014701FF
:107C80004701470147014701470147014701B30049
:107C90004701470147014701470147014701E50007
:107CA0003A004701470147014701470147014701A2
:107CB000800047015800FEF715FF002840F01F81A3
:107CC000924B93F83C3013B14FF0FF349FE03A22CF
:107CD00002212846FFF7B2FF4FF0FF3497E08C4BAC
:107CE000002B00F00E810979C1F3400301F001027D
:107CF0000909FEF739FF002840F00581834B93F80E
:107D00003C3013B14FF0FF3481E03A220221284683
:107D1000FFF794FF4FF0FF3479E00DF1060202A95E
:107D2000FEF706FFBDF80620029B03B172B9774B40
:107D300093F83C3013B14FF0FF3468E03A2202214F
:107D40002846FFF77BFF4FF0FF3460E0013B1BBA92
:107D5000039312BA0492072E01D8002457E003AB14
:107D600003CB20606160082451E000230393049357
:107D7000059308238DF80F3002238DF814300DF190
:107D8000060202A9FEF7D4FE029B13B1BDF806203D
:107D900072B95E4B93F83C3013B14FF0FF3436E0CC
:107DA0003A2202212846FFF749FF4FF0FF342EE028
:107DB0001BBA049352BAADF816200B2E06D903ABAA
:107DC00007CB20606160A2600C2420E000241EE04C
:107DD00000230393049380238DF80D3002238DF844
:107DE0000E308DF80F301F238DF810304FF02033F8
:107DF000059306930793089309930A930B930BAB90
:107E000007AA05A9FEF726FE232E03D80024204644
:107E10000DB0F0BD03AE0BAF35460FCD20606160F5
:107E2000A260E3602E461034BD42F5D12868206080
:107E30002424ECE703238DF80C3000228DF80D206C
:107E40009DF80E3003F0800362F3C7138DF80E30F7
:107E50008DF80F202F4B73B1FEF7DAFE80F0010092
:107E6000C0B29DF80E3060F3C7138DF80E30032EAC
:107E700003D80024CBE70120F0E7039B2360042410
:107E8000C5E700230393049305930693ADF81C30D4
:107E9000F0238DF80C300A238DF813301B4B93F828
:107EA0003C104FF0000261F303028DF80E2093F8AE
:107EB0003D208DF8182093F83E308DF81930112EA2
:107EC00018D903AF0FCF20606160A260E3603B88E8
:107ED0002382114B63B1B2B221462846AFF3008032
:107EE000044600231A4619462846FFF7A7FE8EE7E8
:107EF0001224F6E700248AE74FF0FF3487E70024D6
:107F000085E7002483E7002481E700BF447A00204E
:107F1000696B0200116C02000000000038B50546D4
:107F20000C4681F82C208B688A6B9B1A8B6202238B
:107F300081F8303091F83C3063B1A3684BB1A36A4B
:107F40003BB1237BDB090BD194F82F10284602F0BC
:107F500053FD38BD20220521607BFFF76FFEECE763
:107F600094F82E10284602F047FDF2E7F0B587B0EE
:107F700005460C46CA8A52BA92B252B38B68B3FB1A
:107F8000F2F292B2D4F8111009BAA66BB6FBF2F76E
:107F9000A3689B1BB3F5007F28BF4FF40073607B81
:107FA00000931D4B02FB17623944FEF7F3FD0028D6
:107FB00011DBE0B183B2184A94F82E10284602F083
:107FC000CDFC30BB154B1B6813F0010F21D000BE58
:107FD0001FE00022D6E700233A220221607BFFF750
:107FE0002DFE012221462846FFF798FF11E094F864
:107FF0002E300021CDF80E10ADF812108DF80C5077
:1080000007228DF80D208DF81030059103A802F09D
:1080100019FB07B0F0BD00BF44780020F0ED00E090
:1080200038B505460C46144B1BB1487BFEF7F0FDF6
:10803000B0B1A368A26B9B1AB3F5007F28BF4FF4C1
:1080400000739BB20D4A94F82F10284602F086FC6C
:1080500028B90B4B1B6813F0010F00D000BE38BDD0
:10806000002327220721607BFFF7E8FD012221463C
:108070002846FFF753FFF2E7116C02004478002016
:10808000F0ED00E0F0B587B006460C461546CA8A0A
:1080900052BA92B2002A36D08B68B3FBF2F292B297
:1080A000D4F8111009BAD4F838C0BCFBF2F7607BE1
:1080B0000095254B02FB17C23944FEF783FD011ED4
:1080C00023DBA94230D26D1A002908DDA36B13FA15
:1080D00081F3A3631C482A46014493F0E3FB94F820
:1080E0002F300021CDF80E10ADF812108DF80C6075
:1080F00007228DF80D208DF81030059503A802F0A9
:10810000A1FA07B0F0BD0022CAE7A36B1D44A56326
:1081100000233A220221607BFFF790FD01222146D5
:108120003046FFF7FBFEECE7A36B1D44A563636BD2
:108130009D4203D3022384F83030E2E721463046E3
:10814000FFF76EFFDDE700BF4478002008B540224E
:108150000021024893F0BFFB08BD00BF447A002015
:1081600008B540220021024893F0B5FB08BD00BFCE
:10817000447A00204B79082B01D0002070478B797E
:10818000062B01D000207047CB79502B01D0002066
:108190007047162A07D8204B1B6813F0010F32D006
:1081A00000BE0020704710B582B004468A781B4B91
:1081B00083F82D20087803F12E0201922F330093CB
:1081C00002231A460144204602F060FB38B9124BE4
:1081D0001B6813F0010F18D000BE02B010BD0F498C
:1081E000002381F830301F230A4691F82F102046D3
:1081F00002F0B4FB58B9084B1B6813F0010F08D00C
:1082000000BE1720E9E7002070470020E5E71720AF
:10821000E3E71720E1E700BFF0ED00E0447A00203B
:10822000012902D001231846704730B583B01446A7
:108230000546137803F07F02022A07D003F060039B
:10824000202B65D00023184603B030BD6278012A88
:10825000F4D16288002AF1D1A188C9B2474B93F8C2
:108260003030042B0BD0454A92F82E0088420AD0B9
:10827000424A92F82F408C4220D00123E3E702F0DB
:10828000BBFB0123DFE7022B01D00123DBE793686F
:10829000916B5B1A9362032382F830300D232032F6
:1082A0000146284602F05AFB03460028CBD1344A47
:1082B000126812F0010FC6D000BEC4E70BB1012353
:1082C000C1E72146284602F089FB18B1002353B9C3
:1082D0000123B8E72146284602F0DEFB08B9012356
:1082E000F5E70023F3E72549002381F830301F2309
:1082F0000A4691F82F10284602F030FB034600286A
:10830000A1D11F4A126812F0010F9CD000BE9AE75B
:108310006378FE2B10D0FF2B2CD1638863BBE388DE
:108320000BB100238FE71548FFF744FC2146284690
:1083300002F028FF012386E7638813B9E388012B45
:1083400001D000237FE78DF807300E4B1BB1FEF7FD
:1083500075FB8DF807009DF80730002BF1D0013B2D
:1083600002AA02F8013D01232146284602F026FF19
:10837000012368E7002366E7002364E7447A0020CE
:10838000F0ED00E03D6A020070B50446A44890F8A4
:108390003000012800F0CA8058B1032800F00A819B
:1083A0009F4B93F83030022B00F050810123184688
:1083B00070BD9B4A92F82F00884201D00123F6E756
:1083C0001F2B03D11268974B9A420FD0944D042370
:1083D00085F8303095F82E10204602F00DFB95F808
:1083E0002F10204602F008FB0023E0E78C4B8E4A5A
:1083F0001A625A685A6200229A6283F82C2001217C
:1084000083F830109D685D639A63DE7B282E10D060
:108410002A2E0ED0002D38D0814B1B7BDB0934D1A6
:10842000B5F5007F21D901227D492046FFF776FD71
:10843000B6E77B48FFF7CAFB024638B985B1282E5C
:1084400009D077492046FFF7EBFDA9E7744920469C
:10845000FFF764FDA4E772492046FFF787FD9FE719
:108460006F4B022283F830209AE7ABB26F4A014685
:10847000204602F073FA0346002891D16C4A126834
:1084800012F0010F93D000BE91E765484FF40073DE
:10849000664A00F10F01407BFFF7DCFB00280ADB96
:1084A000002816DB08BB5E4B9B68C3B95C4B0222FD
:1084B00083F8302074E75A4B93F83C30002BEFD10F
:1084C0005748838E594A00F10F01407BFEF742FB6B
:1084D000E6E7012252492046FFF720FD60E701222E
:1084E0004F492046FFF71AFD5AE74D4B9B682BB9C1
:1084F00001224B492046FFF711FD51E7834228BF77
:10850000034647494B639BB2484A91F82E102046D8
:1085100002F024FA034600287FF442AF444A12686E
:1085200012F0010F3FF443AF00BE40E73C4AD27B5C
:10853000282A12D02A2A20D039498A6B13448B6307
:108540000B7BDB091FD0364B9A6B5B6B9A4229D3AE
:10855000334B022283F8302022E731498A6B1344DF
:108560008B634A6B934203D3022281F8302017E7D2
:108570002B492046FFF7FAFC12E71A462849204605
:10858000FFF780FD0CE708468B8E284A0F31407BB1
:10859000FEF7E0FA0028D6DA012221492046FFF74B
:1085A000BDFCD0E7224B1B6813F0010F3FF4F8AE7F
:1085B00000BEF5E61A4A92F82E208A427FF4F0AE09
:1085C0000D2B7FF4EDAE164BDB7B282B0AD02A2B2C
:1085D00034D0184B63B1124B03F10F01587BAFF34A
:1085E000008005E0144B1BB10D4B587BAFF30080AE
:1085F0000B49002381F830301F230A4691F82F10D1
:10860000204602F0ABF9034600287FF4C9AE084AC1
:10861000126812F0010F3FF4CAAE00BEC7E600BFF9
:10862000447A002055534243555342534478002026
:10863000F0ED00E000000000000000001E4B002BE9
:10864000D6D01E4B587BFEF7D5FAD1E71B4B93F8DB
:108650002E10204602F020FA034600287FF4A7AE31
:10866000164A9368926B934203D91449097BC9094E
:1086700019D19B1A11498B62032381F830300D23E5
:1086800001F1200291F82E10204602F067F903460E
:1086900000287FF48CAE0A4A126812F0010F3FF4F2
:1086A00086AE00BE83E6054B93F82E10204602F0FE
:1086B000A3F901237BE600BFF56B0200447A00209A
:1086C000F0ED00E010B504468178002002F01EF9BC
:1086D00000B910BD201D01F004FD3F2804D8A17889
:1086E000002002F027F9F4E7402304F5A672A178F0
:1086F000002002F033F9ECE770B5054601F00AFFFF
:1087000018B9002343B9002070BD01F00BFF08B970
:108710000123F7E70023F5E74FF4E67303FB05F3C6
:108720001833234C1C44204601F0BFFC08B900203C
:10873000EAE71F4A4FF4E67303FB0523597800204C
:1087400002F0E4F808B90020DEE74FF4E67606FB15
:1087500005F606F5C473164E1E4404364022314613
:10876000204601F0D4FC0446A0B1114A4FF4E67350
:1087700003FB0525034632466978002002F0EEF837
:1087800030B90C4B1B6813F0010F0ED000BEBBE7D5
:108790002046B9E7064B4FF4E67202FB05356978CF
:1087A000002002F0C7F80020AEE70020ACE700BFD1
:1087B000847A0020F0ED00E02DE9F04182B04FF422
:1087C000E67200211F4893F086F8002616B102B029
:1087D000BDE8F0811B4D4FF4E67404FB06F404F190
:1087E000280129442F194FF00008CDF800800123FB
:1087F00040220431381D01F021FC04F168012944B4
:1088000004F11800CDF800800123402204312844EF
:1088100001F014FC04F1A80129440431012063F0A3
:10882000CDFCC7F81080786104F1F80129440431C7
:10883000012063F0C3FC7862C7F828800136F6B2E5
:10884000C4E700BF847A002070B5002404B170BD75
:10885000094E4FF4E67505FB04F5701900237351BA
:10886000043001F077FC05F11800304401F072FC8F
:108870000134E4B2EAE700BF847A00204B79FF2B91
:1088800001D000207047F0B583B00C780C44A618D6
:1088900000235BB10027002F4DD00D468B783B7035
:1088A0000A79E2B9601B80B203B0F0BD1F46244ACA
:1088B0004FF4E67505FB03256A7832B9204D4FF475
:1088C000E67202FB0352927812B10133DBB2E0E7A9
:1088D0004FF4E67202FB0757DDE723781C44637808
:1088E000052B01D0B442F8D37B1C0193BB1C009331
:1088F0000223214601F0CAFF30B9124B1B6813F066
:10890000010F1AD000BECFE72B79C3EBC3031C4481
:10891000BB7863B97B78002BC4D00948381A801023
:10892000094B03FB00F0C0B2FFF7E6FEBAE738469A
:10893000FFF7C8FEEEE70020B6E70020B4E700BF6F
:10894000847A0020F0ED00E0BBA4F26170B5194E0E
:10895000002464BBB078884207D075788D4204D07B
:108960000134E4B206F5E676F3E7884204D0727883
:108970008A4211D001201BE09AB206F5A671301D83
:1089800001F0E3FB0C4B13B12046AFF300803046FF
:10899000FFF798FE01200BE0084A1AB199B2204671
:1089A000AFF300802046FFF7A7FE012000E0002083
:1089B00070BD00BF847A00200000000000000000AD
:1089C0000268C08810447047C28842B1037803EB44
:1089D000830103EB41030349C8581044704700204A
:1089E000704700BF507C002001E0037818448842A3
:1089F00002D243789342F8D1704788420CD210B427
:108A00004478944205D09C4203D0047820448842A4
:108A1000F6D35DF8044B70477047F8B50C46164620
:108A20001D46069F05E00378324621461844FFF7AD
:108A3000DBFFA04206D28378AB42F4D1C378BB42BD
:108A4000F1D104462046F8BD70B50C46867806E0A4
:108A500005780B23042221462844FFF7CEFFA042CD
:108A600002D283789E42F3D070BD884208D2427809
:108A7000052A04D0042A03D002781044F5E7014601
:108A80000846704738B50D460478C3891C44044431
:108A900005E00378242221461844FFF7A5FFA042F1
:108AA00008D28378023BDBB2052BF2D8C378AB4205
:108AB000EFD10446204638BDF8B506694169761AFB
:108AC00090F850308269F518954200D315469D42C2
:108AD00008D2104B1B6813F0010F19D000BE0025FF
:108AE0002846F8BD0446EF1A03F15000E3683A4601
:108AF0001944204492F0CBFE63693B446361BE425B
:108B0000EED194F8513043F0020384F85130E7E796
:108B10000025E5E7F0ED00E02DE9F04182B0804668
:108B20000F460D688C882C44AB78009204222146B5
:108B30002846FFF772FF844231D90646037D012B98
:108B400007D91A4B1B6813F0010F2DD000BE00236C
:108B500026E00078F18901447418737A184430448F
:108B60003379C3B1012B01D0002319E0052221463E
:108B7000FFF73AFFA04201D3002311E0014640462F
:108B800001F056FE034630B9084A126812F0010F90
:108B900006D000BE04E0751BFD80012300E0002329
:108BA000184602B0BDE8F0810023F9E7F0ED00E0DF
:108BB000F8B506460D460846FFF702FF0378427AED
:108BC0001A448718C2891344C418037923B90023AF
:108BD000AB71EB710120F8BD052221463846FFF745
:108BE00003FFA04207D3074B1B6813F0010F07D008
:108BF00000BE0020EFE78178304602F063FAE6E736
:108C00000020E8E7F0ED00E010B514465288120AA3
:108C1000012A0AD0022A65D0484B1B6813F0010FC5
:108C200000F08A8000BE072010BD6278812A2DD016
:108C3000862A45D0012AEFD1012903D0022917D075
:108C40000020F1E7E288012A01D0FF20ECE703EBE6
:108C5000830203EB42030833394A1A4401230232E8
:108C6000214602F0ABFA08B10020DDE7FF20DBE788
:108C7000344A002A5ED003EB830203EB4201304A00
:108C80000A44917A1846AFF30080CDE7012901D05C
:108C90000020C9E7E288012A01D0FF20C4E703EBE6
:108CA000830203EB42030833254A1A4401230232AC
:108CB000214602F083FA08B10020B5E7FF20B3E7B0
:108CC000012901D00020AFE7E388012B01D0FF206C
:108CD000AAE71D4A214602F071FA08B10020A3E775
:108CE000FF20A1E76278812A05D0862A94D1012944
:108CF00016D0002098E7012901D0002094E703EB6B
:108D0000830203EB420308330D4A1A4401231A4439
:108D1000214602F053FA08B1002085E7FF2083E7DF
:108D200001230A4A214602F049FA08B100207BE7F4
:108D3000FF2079E7002077E7072075E7F0ED00E0F6
:108D4000507C002000000000DA3A0C00D93A0C00F8
:108D500070B582B00546144652780A2A09D00B2A0B
:108D600026D0264B1B6813F0010F44D000BE07200D
:108D700002E0012902D0002002B070BDE288012A81
:108D800014D103EB830003EB40031D481844FFF7A5
:108D900017FE58B1C37802AA02F8013D012321460B
:108DA000284602F00BFA08B10020E5E7FF20E3E7D0
:108DB000012901D00020DFE7E288B2B903EB83008C
:108DC00003EB40030E4E1E4431462846FFF7F0FEEB
:108DD00068B1628831462846FFF79EFE48B12146B9
:108DE000284602F0CFF90020C6E7FF20C4E7FF20A5
:108DF000C2E7FF20C0E70720BEE700BFF0ED00E0BC
:108E0000507C002010B51478C4F341141CB1012C1F
:108E100004D0072001E0FFF79BFF10BD9488240ACF
:108E20000DD003EB830003EB400307481844FFF722
:108E3000C7FD2146FFF726FE20B10020EDE7FFF732
:108E4000E3FEEAE70720E8E7507C0020F8B50D468E
:108E5000FFF7BAFDAB7820B11F460446027B934270
:108E600008D9774B1B6813F0010F00F0DF8000BEBC
:108E70000020F8BD2BB9012A01D90120F9E701270B
:108E8000AF70002301222A726B72AB72EB72AA736D
:108E9000EB732B746B746FF03F01A9766FF00301D5
:108EA000E9766FF0640129776A770322AA770122B5
:108EB000EA7785F8202085F8212085F822300823DC
:108EC00085F823302378B4F80D601E4426441C44F2
:108ED00009E0E3789F4213D02078242231462044D1
:108EE000FFF782FD0446A64209D9A378042BF0D0EF
:108EF000062BEED00C2BECD0112BEDD1E9E734464C
:108F0000A64206D0A378042B0CD0062B0ED000204E
:108F1000AFE74B4B1B6813F0010F00F0898000BED8
:108F20000020A6E701232B7300236B73EF782379CE
:108F30009F4207D9424B1B6813F0010F7AD000BE45
:108F4000002096E72FB9012B01D9012091E70127D5
:108F5000EF702078204408E0C3789F4210D0037857
:108F6000242231461844FFF73FFD864207D9837813
:108F7000052BF1D0072BEFD0112BF0D1ECE73046C9
:108F8000864210D0D5F8123033B9A278042A12D014
:108F9000062A1BD0C5F812306A6862BB427E012ADD
:108FA0001DD9012065E7264B1B6813F0010F43D044
:108FB00000BE00205DE7B0F80520B0F8073003FBE5
:108FC00002F2637D03FB02F3DB08E3E7B0F8052060
:108FD000B0F8073003FB02F31B01DB08DAE73AB90C
:108FE000D0F81E10D0F81A20914201D0012040E79D
:108FF000D0F81A206A601349A1FB0212520B07D164
:109000000F4B1B6813F0010F18D000BE002030E793
:109010001344013BB3FBF2F30233B3F5807F01D974
:109020004FF48073C5F81630012022E7002020E7B6
:1090300000201EE700201CE700201AE7002018E7A8
:10904000F0ED00E05917B7D138B50446002141775B
:10905000816100F11E053022284692F03CFC294631
:109060002046FFF7F3FE38BD2DE9F04F83B0804670
:109070000D4691460B7803EB830203EB42034A4A09
:10908000D7580024012C0ED805EB44031B8953B19B
:109090003B449978404602F015F805EB4403002262
:1090A0001A810134EEE70023EB602B616B61688865
:1090B0003844AE883E448378CDF80090042231468F
:1090C000FFF7ABFC0446864261D990F804A0BAF1E0
:1090D000020F07D9354B1B6813F0010F5CD000BE9F
:1090E000002355E0BB46C71BEF80B9F1000F02D14A
:1090F0006B7F012B03D120782044002721E02846F4
:10910000FFF7A2FF03460028F5D141E0274B1B687B
:1091100013F0010F42D000BE002339E0C37803F002
:109120000303022B3CD12146404601F081FB03465C
:10913000F8B1A4EB0B0205EB47031A810137207845
:10914000204457451CD23146FFF78FFC0446864227
:10915000DCD9AA69B9F1000FE0D0C37803F00303AA
:10916000012BE0D18388C3F30A039342DBD20023AF
:109170000EE00E4A126812F0010F09D000BE07E09F
:10918000B9F1000F0ED002236B77012300E000231A
:10919000184603B0BDE8F08F0023F9E70023F7E796
:1091A0000023F5E70123F3E7507C0020F0ED00E019
:1091B00030B583B0054614461F4A4FF4A87000FB33
:1091C000032063780A2B09D00B2B1FD01B4B1B6885
:1091D00013F0010F2DD000BE07201AE0012901D0A5
:1091E000002016E0E388012B0ED1FFF7EDFB58B10C
:1091F000C37802AA02F8013D01232146284601F066
:10920000DDFF08B1002004E0FF2002E0012902D0C8
:10921000002003B030BD628801462846FFF724FFD6
:1092200028B12146284601F0ADFF0020F1E7FF20DC
:10923000EFE70720EDE700BF5C7C0020F0ED00E0E9
:109240002DE9F0410F46144692F80280B8F1000F64
:1092500034D1832905D0872909D0822907D000205D
:109260002AE0FFF7B1FB20B1037BA37001E00123EB
:10927000A3700023012222726372A372E37222732D
:109280006373A273E373237463746FF03F01A17679
:109290006FF00301E1766FF06401217762770322BA
:1092A000A2770120E07784F8200084F8210084F878
:1092B0002230082384F82330BDE8F081D678002ED0
:1092C00075D1FFF781FB054630B10378B0F80D602A
:1092D0001E4406441D4411E0874B1B6813F0010F28
:1092E00000F0018100BEE7E7EB78984513D02878BD
:1092F000242231462844FFF777FB0546AE4209D9C0
:10930000AB78042BF0D0062BEED00C2BECD0112B2D
:10931000EDD1E9E73546832F05D0872F08D0822F7E
:1093200011D00020C8E72F79E7702878284415E08D
:10933000AB78042B03D0062B03D00020BCE7AF7D15
:10934000F2E7AF79F0E70127EEE7C3789F420FD04D
:109350000378242231461844FFF746FB864208D999
:109360008378052BF1D0072BEFD0112BF0D1ECE750
:109370000646AB78042B03D0062B0FD000209BE7CA
:10938000B6F80520B6F8073003FB02F26B7D03FB4D
:1093900002F3DB08C4F8123001208DE7B6F805208F
:1093A000B6F8073003FB02F31B01DB08F2E7536852
:1093B000002B40F09A80FFF707FB034630B100789E
:1093C000B3F80D5005441D44184410E04A4B1B6887
:1093D00013F0010F00F08B8000BE6DE7C378984555
:1093E00012D00378242229461844FFF7FDFA85425B
:1093F00009D98378042BF1D0062BEFD00C2BEDD0BC
:10940000112BEED1EAE728460378184408E0C37828
:109410009E420FD00378242229461844FFF7E4FA2D
:10942000854208D98378052BF1D0072BEFD0112B7B
:10943000F0D1ECE70546823F052F5AD8DFE807F068
:1094400022033A5959336B7ECBB1053305EB8303C5
:10945000D3F80220D5F81A302849A1FB03135B0B7F
:1094600062609AB3D4F81220BBBB931CB3F5807F23
:1094700001D94FF48073C4F8163001201CE7D5F8E9
:109480001E20E7E76B7E5BB1053305EB8303D3F862
:109490000230D5F81A201949A1FB03135B0BDFE753
:1094A000D5F81E30F5E7D5F81520144BA3FB0213B1
:1094B0005B0BD5E76B7E33B9D5F822200F4BA3FBAE
:1094C00002135B0BCCE700231A46C9E70023A37500
:1094D000E375237663760120EEE61A44013AB2FB87
:1094E000F3F30233C2E70020E6E60120E4E60020C1
:1094F000E2E60020E0E600BFF0ED00E05917B7D14A
:109500002DE9F0418CB0074615461E46AE4C4FF48F
:10951000A87000FB034453881B0A022B00F0F08064
:10952000062B0CD0012B34D0A84B1B6813F0010F75
:1095300000F0968100BE07200CB0BDE8F0815378A2
:10954000812B05D0862BEFD1012917D00020F3E71E
:10955000012901D00020EFE74FF4A87202FB06F2C8
:109560001832994B1A44012304322946384601F037
:1095700025FE08B10020DFE7FF20DDE70123944A44
:109580002946384601F01AFE08B10020D4E7FF2032
:10959000D2E78D4A4FF4A87303FB06235B7F2BB100
:1095A0004FF4A87303FB062300225A776B78842BB1
:1095B00009D8822B11D2012B13D0812BB4D10129D0
:1095C00037D00020B8E7862B00F0878003D201292E
:1095D00071D00020B0E7872BA6D101293FD0002011
:1095E000AAE7012903D0022913D00020A4E74FF4F1
:1095F000A87303FB06F31833734A1A443023063268
:109600002946384601F0DAFD08B1002094E7FF2032
:1096100092E74FF4A87303FB06F318336A4A134426
:10962000991D2046FFF712FC08B1002084E70820AE
:1096300082E7EB88002B00F00B814FF4A87303FB4B
:1096400006F31833604A1A44302306322946384656
:1096500001F0B4FD08B100206EE7FF206CE7EB8855
:109660000BB9FF2068E7584A4FF4A87303FB0623A1
:1096700003F11E06E84603F14E0CC64630687168D9
:10968000B268F368AEE80F001036F0466645F4D1D4
:109690006A4669782046FFF7D3FD08B908204BE7F2
:1096A00030236A462946384601F088FD08B100207B
:1096B00042E7FF2040E7EB88022B01D0FF203BE789
:1096C0000CAA302322F8303D02232946384601F007
:1096D00075FD0028F2D000202EE7012901D00020DE
:1096E0002AE7EB88012B01D0FF2025E7394A2946DC
:1096F000384601F063FD08B100201DE7FF201BE79D
:109700005378812B5BD009D9852B7CD0862B7FF4B5
:109710000BAF012900F08D8000200DE7012B7FF4B5
:1097200003AF012903D0022913D0002004E74FF42E
:10973000A87303FB06F31833234A1A443023063276
:109740002946384601F03AFD08B10020F4E6FF2032
:10975000F2E64FF4A87303FB06F318331A4D2B44BB
:109760009D1D29462046FFF771FB002872D0164A3E
:109770004FF4A87303FB06235A6B9A61164B63B12F
:1097800011484FF4A87303FB06F3C1182A46497821
:10979000C05CAFF3008000285ED10B494FF4A87382
:1097A00003FB06F3CA18012050770020D060106137
:1097B00050615033CA180224CC545070BCE60129C1
:1097C0000CD00020B8E600BF5C7C0020F0ED00E08B
:1097D000D93A0C00DA3A0C0000000000D388002BC4
:1097E0003CD04FF4A87303FB06F318331D4A1A4408
:1097F000302306322946384601F0E0FC08B100204B
:109800009AE6FF2098E6012901D0002094E6D3884B
:10981000022B01D0FF208FE60CAA302322F8303D26
:1098200002232946384601F0C9FC0028F2D0002066
:1098300082E6D388012B01D0FF207DE60A4A294623
:10984000384601F0BBFC08B1002075E6FF2073E646
:10985000FF2071E608206FE600206DE6FF206BE632
:10986000072069E65C7C0020DA3A0C0010B5147819
:10987000C4F341141CB1012C04D0072001E0FFF710
:1098800097FC10BD9488240A02D1FFF739FEF8E74F
:109890000720F6E710B5002313B100246CB110BD0A
:1098A0000B4C03EB830203EB4202A0180021A150F2
:1098B0004160C0F807100133EEE750220021054B4C
:1098C0004FF4A87000FB043092F005F80134E5E78E
:1098D000507C00205C7C002010B5002313B10024D4
:1098E0006CB110BD0B4C03EB830203EB4202A018DA
:1098F0000021A1504160C0F807100133EEE750226B
:109900000021054B4FF4A87000FB043091F0E3FFF9
:109910000134E5E7507C00205C7C00204B790E2B65
:1099200001D0002070478B79012B01D000207047B7
:10993000CB79012B01D0002070472DE9F04F85B085
:1099400000276FB14FF0000ADFB1484B1B6813F0DE
:10995000010F00F0878000BE002005B0BDE8F08F49
:1099600007EB870307EB4303414CE35813B101377F
:10997000FFB2E6E707EB870307EB430A3C4B9A4449
:10998000E2E70C4603908B180293CAF80010AAF87D
:10999000042000225146FFF7BFF808B90020DCE799
:1099A0005046FFF70DF890F814B002992046FFF7E3
:1099B0004BF80546B84625E02E494FF4A87202FB45
:1099C000031252882ABB2B4A4FF4A87101FB0326CD
:1099D0000AEB07021372FEB186F800807770A5EBE0
:1099E00004091FFA89F9A6F8029002992846FFF7A0
:1099F0002BF80546031B9BB2B380002272779FB100
:109A00000137FFB2BB4528D94346002BD4D00026EE
:109A1000E1E70133DBB2F8E7144B1B6813F0010FE9
:109A200022D000BE002098E7BBF1010FE8D104EB83
:109A3000090004EB030983780122009204224946BD
:109A4000FEF7EBFF8145DBD1002231460398FFF79B
:109A50000BFB0028D4D100207FE7281B80B2AAF896
:109A600004007AE7002078E7002076E7F0ED00E0D8
:109A7000507C00205C7C0020F8B5137803F01F03B5
:109A8000012B01D00020F8BD9588EDB200242CB147
:109A900084B10024DCB19CB30020F4E704EB840320
:109AA00004EB43031E4EF35813B19B78AB42EFD047
:109AB0000134ECE72346FFF7A5F904EB840304EB3C
:109AC0004304174B1C44607240B30020DBE7154E83
:109AD0004FF4A87303FB04635F887FB14FF4A8764B
:109AE00006FB04F60F4B9B5D03EB830603EB46037B
:109AF0000B4EF3583B449B78AB42CCD00134C9E7C2
:109B00002346FFF7B3FE074B4FF4A87202FB043461
:109B1000207708B90120B6E70020B4E70120B2E7BA
:109B2000507C00205C7C002070B500234BB103B357
:109B3000274B1B6813F0010F46D000BE00231846C8
:109B400070BD244A4FF4A87404FB0324268976B11F
:109B50004FF4A87505FB03F5525D02EB820502EB9D
:109B600045021D4DAA58324492788A42DFD0013313
:109B7000DCE70D460646626923699A420BD300234F
:109B8000E36023616361154B03B361782078AFF321
:109B900000800123D3E700F0B9FE03460028CED0B1
:109BA0002046FEF789FF83B204F150022946304671
:109BB00000F0D4FE03460028C1D1054A126812F015
:109BC000010FBCD000BEBAE70023B8E70123B6E717
:109BD000F0ED00E05C7C0020507C002000000000E4
:109BE0000A4492B2914202D8B2EB400F03DB40002C
:109BF00080B2121A92B21046704770B50D46848832
:109C00009A420AD3D11A89B201B38C4210D294423B
:109C100009D8131B9BB243810AE0D11A660016FAD9
:109C200081F189B2F0E7A3189BB2F4E71B1B9BB24A
:109C30009C42FBD90468C188C1F30E010A4601FBAE
:109C40000341284691F023FE012070BD0020FCE76F
:109C500010B582B00446900803E051F8040B206070
:109C60001846431E9BB20028F7D112F0030201D11F
:109C700002B010BD02A8002340F8043D91F007FE99
:109C8000019B2360F4E72DE9F04782B007460E46BA
:109C90009DF828108088C01A80B2151AADB2FC88D1
:109CA000C4F30E041FFA84FE14FB00F81FFA88F8B0
:109CB00014FB05F51FFA85FA3D680EFB035921B127
:109CC000012917D002B0BDE8F087904206D30EFB01
:109CD00002F24946304691F0DAFDF3E74246494642
:109CE000304691F0D4FD5246396806EB080091F0F9
:109CF000CEFDE7E790421BD228F00304A4B222462F
:109D000049463046FFF7A4FFA14418F0030137D0BD
:109D1000C1F104039BB2534528BF5346DBB2AAEB03
:109D200003051FFA85FA02A8002240F8042D0EE070
:109D300014FB02F292B249463046FFF789FFC1E7B1
:109D400099F8001001700130114609F101094A1E0D
:109D5000D2B20029F4D1396804E00B7803700130E5
:109D6000134601315A1ED2B2002BF6D1019B33604B
:109D7000BAF1000FA6D052463046FFF769FFA1E7BF
:109D80003968F5E7F0B583B0BDF820408588A34277
:109D90000ED31E1BB6B2FEB1B54205D29D420DD800
:109DA0005B1B9CB244812E4696420CD316460AE0B9
:109DB0001E1B6F0017FA86F6B6B2ECE72B449CB276
:109DC000F0E7641BA4B2A542FBD99DF824300093B0
:109DD00023463246FFF757FF304603B0F0BDF0B5DB
:109DE00083B004460D4616461F46006918B14FF071
:109DF000FF3162F0D9FA23896289019700923246D5
:109E000029462046FFF7BEFF054661890246A08825
:109E1000FFF7E6FE6081206920B100231A4619464B
:109E200062F032F9284603B0F0BD10B582B0940854
:109E300003E00C6840F8044B1C46631E9BB2002CE8
:109E4000F7D112F0030201D102B010BD0B6802A9D4
:109E500041F8043D91F01BFDF6E72DE9F04782B093
:109E600007460E469DF82800B988C91A89B2551AC6
:109E7000ADB2FC88C4F30E041FFA84FE14FB01F893
:109E80001FFA88F814FB05F51FFA85FA3D680EFBEA
:109E9000035920B1012817D002B0BDE8F0879142E4
:109EA00006D30EFB02F23146484691F0F0FCF3E790
:109EB00042463146484691F0EAFC524606EB08011C
:109EC000386891F0E4FCE7E791421BD228F00304E4
:109ED000A4B2224631464846FFF7A7FFA14418F036
:109EE000030135D0C1F104039BB2534528BF53464B
:109EF000DBB2AAEB03051FFA85FA326802AC44F81C
:109F0000042D0EE014FB02F292B231464846FFF7F0
:109F10008CFFC1E7217889F800100134114609F15E
:109F200001094A1ED2B20029F4D1386804E023782E
:109F300003700134134601305A1ED2B2002BF6D101
:109F4000BAF1000FA8D052463146FFF76EFFA3E7E3
:109F50003868F5E72DE9F04383B09146002A68D0D0
:109F6000054688461F46C06818B14FF0FF3162F0C1
:109F70001BFA2E89B6B2698989B2EB79DB0918D14F
:109F8000AC888E420DD3711A89B28C420FD9641AF3
:109F9000A4B24C4528BF4C46002C42D0AA88334678
:109FA00031E0711A630013FA81F189B2EDE7002400
:109FB000EFE7AC884C4509D8FFB9A9EB0409EB8859
:109FC000C3F30E0303FB09880E46E5E78E420ED36A
:109FD000731A9BB24B44B3EB440F10DBA4EB0902A2
:109FE00092B22046FFF7FCFD06464C46D4E7731AB2
:109FF000620012FA83F39BB2ECE70E46CCE74C46C4
:10A00000CAE79B1A9BB29A42FBD900972246414667
:10A010002846FFF722FF22463146A888FFF7E0FDD9
:10A020002881E86830B100231A46194662F02CF8FE
:10A0300000E01446204603B0BDE8F083B2F5004FBF
:10A040002FD8F8B51F4615460E460446C06818B10D
:10A050004FF0FF3162F0A8F9206918B14FF0FF31DD
:10A0600062F0A2F92660A580E28867F30E02E28022
:10A07000C2F307229DF8183063F3C712E271002380
:10A0800063812381E06818B11A46194661F0FCFF2C
:10A09000206940B100231A46194661F0F5FF0120FE
:10A0A000F8BD002070470120FAE7818803899BB240
:10A0B000428992B2934208D29B1A480010FA83F365
:10A0C00098B2884228BF084670479B1A98B2F8E7B2
:10A0D000028992B243899BB29A4214BF00200120A8
:10A0E0007047828803899BB2408980B2834206D33D
:10A0F0001B1A9BB29A4208D9D31A98B270471B1AFE
:10A10000500010FA83F39BB2F4E70020704708B5C3
:10A110000023FFF764FE08BD38B504460D4600690C
:10A1200018B14FF0FF3162F03FF922896389294667
:10A130002046FFF762FD0546206920B100231A463C
:10A14000194661F0A1FF284638BD08B50023FFF786
:10A1500001FF08BD10B50446C06818B14FF0FF31CB
:10A1600062F022F9206918B14FF0FF3162F01CF95A
:10A17000002363812381E06818B11A46194661F013
:10A1800083FF206920B100231A46194661F07CFF45
:10A19000012010BD38B504460D46C06818B14FF017
:10A1A000FF3162F001F9206918B14FF0FF3162F020
:10A1B000FBF8E37965F3C713E371E06820B100238E
:10A1C0001A46194661F060FF206920B100231A4643
:10A1D000194661F059FF012038BD000038B5054629
:10A1E00000240BE09B1A03EB4303DA00174B1344E4
:10A1F0009BB15B68284698470134E4B22346144A71
:10A200001278911D8C420FDAA242EBD9114B1B68D8
:10A2100004EB4401CA001344EAE70F4B1B6813F038
:10A22000010F12D000BE10E00C4C38220021204655
:10A2300091F051FB4FF0FF336360A360E360236153
:10A240006361A361E3612362A38438BDDC3A0C003F
:10A25000B07D0020AC7D0020F0ED00E0047E002009
:10A2600008B5FFF7BBFF00F0EDFF08BD70B5054670
:10A270000C461646C86800F0EFFFE368324601213D
:10A280002846984770BD00002DE9F04F83B001903B
:10A290000139C8B2FCF780FB18B183464378022B22
:10A2A00008D0574B1B6813F0010F00F09D8000BED3
:10A2B00000209AE0C279C2F3401052490B7860F353
:10A2C0000413C2F3801262F345130B700BF10907FC
:10A2D000BBF802309B445F4580F084807B780B2B79
:10A2E0000AD04FF0010A7B78042B0AD1ABEB0708A8
:10A2F0001FFA88F8002447E097F803A03B781F4432
:10A30000F1E73F4B1B6813F0010F71D000BE002036
:10A310006BE0A9EB050505EB45053B4B03EBC505DC
:10A3200040E0374B1B6813F0010F63D000BE0020E4
:10A330005BE0AB68354A934205D0354A934240D141
:10A340004FF0020A3DE04FF0020AF6E72C4B1B6883
:10A3500013F0010F50D000BE002046E023463246E5
:10A3600039462C4802F014F837442B4B1B7806333F
:10A370009945B0DB224B1B6813F0010F3ED000BEA5
:10A38000002032E00134E4B2A146234B1D78AB1D1E
:10A390009C42EADAA542BCD9204B1D6804EB440379
:10A3A00005EBC305002DBCD0AB6842463946019889
:10A3B000984706460828E5D98045E3D3BAF1010F4E
:10A3C000B7D000229245C9D9BB781344DBB20D49FE
:10A3D00019440979FF29B9D10A490B441C7101328A
:10A3E000D2B2EFE7012000E0002003B0BDE8F08F1B
:10A3F0000020FAE70020F8E70020F6E70020F4E765
:10A40000F0ED00E0047E0020DC3A0C00BD7002009C
:10A41000BD790200187E0020B07D0020AC7D0020B8
:10A4200038B505460C464888020AC0B2531E0E2BAA
:10A4300055D8DFE803F008253D54544825545454BA
:10A44000545454541100FCF7A3FA12230246214637
:10A45000284600F0B3FE38BD294B002B41D0FCF755
:10A4600047FC024630B9274B1B6813F0010F3AD066
:10A4700000BEF0E743882146284600F09FFEEAE749
:10A48000022A0BD0204B83B3AFF3008048B91D4B99
:10A490001B6813F0010F2AD000BEDCE7FCF77CFA42
:10A4A000F4E7438802462146284600F087FED2E7BB
:10A4B000A188FCF777FA0246D8B1037821462846EE
:10A4C00000F07CFEC7E7114BABB1AFF30080024652
:10A4D00098B103782146284600F070FEBBE70020C3
:10A4E000B9E70020B7E70020B5E70020B3E7002078
:10A4F000B1E70020AFE70020ADE70020ABE700BFE9
:10A50000F16C0200F0ED00E000000000000000002F
:10A5100070470000024B5878003018BF0120704788
:10A52000047E0020024B1878C0F38000704700BF03
:10A53000047E0020024B1878FF3818BF01207047B6
:10A5400014610020F0B583B00646FFF7F3FF05461F
:10A5500010B1284603B0F0BD382200212E4891F0FA
:10A56000BAF92E49012061F029FE2D4B1860C8B1BF
:10A570002C4C208861880023009304F10C0362684E
:10A5800061F04BFD0746A16861F0C8FF264B1F60D4
:10A590007FB1264B23B12648AFF30080254B1860CE
:10A5A000002418E0244B1B6813F0010FD1D000BE2B
:10A5B000CFE7214B1B6813F0010FCAD000BEC8E7DC
:10A5C0009B1A03EB4303DA001C4B134493B11B6843
:10A5D00098470134E4B22346154A1278911D8C4203
:10A5E0000FDAA242ECD9134B1B6804EB4401CA00FA
:10A5F0001344EBE7104B1B6813F0010FA9D000BE0A
:10A60000A7E70F4B1E70304601F06AF8304601F0A4
:10A6100069F801259DE700BF047E0020B47D00207D
:10A620003C7E0020B8600020407E0020000000003A
:10A63000B07D0020AC7D0020F0ED00E0DC3A0C00A5
:10A640001461002030B585B005460C464378023BC6
:10A65000042B13D8DFE803F00339232E9000544B6A
:10A660001A786FF300021A701A786FF341021A70A9
:10A67000002159701A7861F382021A704D4B1868E4
:10A68000002C7FD100234FF0FF32294661F0FCFC03
:10A69000224669782878FFF73BFF05B030BD444B70
:10A6A0001B7813F0010FF8D0414A137843F00403EC
:10A6B0001370E3E73E4B1B7813F0010FEDD03C4ADB
:10A6C00013786FF382031370D8E7394B1B7813F0BC
:10A6D000040F1ED0364A13786FF3820313700023E1
:10A6E00001930293039303788DF8043005238DF8CA
:10A6F0000530304B186871B900234FF0FF3201A9C3
:10A7000061F0C2FC22469DF805109DF80400FFF799
:10A71000FFFE002421E0002304AA42F8103D01A915
:10A7200061F05BFD009B002BECD0234B4FF080527F
:10A730005A6040BFBFF34F8FBFF36F8FE2E79B1AA2
:10A7400003EB4303DA001D4B134423B15B6913B1E0
:10A750006968287898470134E4B22346184A127889
:10A76000911D8C4299DAA242E9D9164B1B6804EB81
:10A770004401CA001344E8E70D4AD3780133DBB241
:10A78000D3707BE7002304AA42F80C3D294661F010
:10A7900024FD019B002B3FF47BAF074B4FF0805211
:10A7A0005A6040BFBFF34F8FBFF36F8F70E700BF9A
:10A7B000047E0020407E002000ED00E0DC3A0C002A
:10A7C000B07D0020AC7D002010B584B00023019343
:10A7D00008238DF8053002900391134B1868144636
:10A7E00092B1002304AA42F8103D01A961F0F5FCE2
:10A7F000009B7BB10D4B4FF080525A6040BFBFF3BE
:10A800004F8FBFF36F8F05E000234FF0FF3201A998
:10A8100061F03AFC22469DF805109DF80400FFF710
:10A8200077FE04B010BD00BF407E002000ED00E0C8
:10A8300038B5134B1D788B7803F07F03082B08D9AC
:10A84000104B1B6813F0010F18D000BE00231846F0
:10A8500038BD0C460C4B9978204601F041FD03466B
:10A8600030B9084A126812F0010FF0D000BEEEE7CE
:10A870002146284600F05AFF0346E8E70023E6E7B2
:10A8800014610020F0ED00E0047E00202DE9F04787
:10A8900080460C4616461F46DDF82090DDF824A0C1
:10A8A000002513E0184B1B6813F0010F29D000BEE0
:10A8B000002323E0144A126812F0010F1ED000BEDC
:10A8C0001CE08AF8003023781C440135AE4214DDC8
:10A8D0006378052BE6D1E37803F00303BB42E1D1B3
:10A8E00021464046FFF7A4FF03460028E2D0A378A4
:10A8F000DA09E6D189F80030E5E701231846BDE81A
:10A90000F0870023FAE700BFF0ED00E008B501F0A2
:10A910007F00400000EBD110203004490844044B74
:10A920001968063001F08AFC08BD00BF047E0020D3
:10A930003C7E002008B501F07F00400000EBD11004
:10A94000203004490844044B1968063001F0A5FC86
:10A9500008BD00BF047E00203C7E0020F8B51C48E6
:10A96000007801F07F06CD091A4C04EB46042C4414
:10A970002034A47914F0010F08D0174B1B6813F092
:10A98000010F22D000BE00231846F8BD114C04EB85
:10A9900046042C4494F8267047F0010784F826708A
:10A9A000203401F009F803460028EDD1A2796FF3B5
:10A9B0000002A271A2796FF38202A271064A1268A4
:10A9C00012F0010FE0D000BEDEE70023DCE700BF9D
:10A9D00014610020047E0020F0ED00E001F07F0211
:10A9E000044B03EB420303EBD11191F8260000F076
:10A9F00001007047047E002038B5114B187801F033
:10AA00007F05CC090F4B03EB4503234420339B798F
:10AA100013F0020F00D038BD01F062F8094B03EBD0
:10AA20004503234493F8262042F0020283F82620AF
:10AA300093F8262042F0010283F82620EBE700BFBE
:10AA400014610020047E002038B5114B187801F005
:10AA50007F05CC090F4B03EB4503234420339B793F
:10AA600013F0020F00D138BD01F064F8094B03EB7D
:10AA70004503234493F826206FF3410283F82620F0
:10AA800093F826206FF3000283F82620EBE700BF3F
:10AA900014610020047E002001F07F02044B03EBD0
:10AAA000420303EBD11191F82600C0F34000704738
:10AAB000047E00202DE9F04182B005460C460020BE
:10AAC00000F0CAFB237803F06003602B14D0402B06
:10AAD0001ED0227802F01F02012A00F0F7802AB36C
:10AAE000022A00F03B81A54B1B6813F0010F00F018
:10AAF000D38100BE002307E0A04B1B6813F0010FB9
:10AB000000F0AE8100BE0023184602B0BDE8F0811F
:10AB10009B4B002B00F0A681184600F09DFB2246BF
:10AB200001212846FCF7E8F80346EDE7202B09D081
:10AB300073B3924B1B6813F0010F00F09B8100BEB2
:10AB40000023E1E7A388DBB20F2B00F28D818D4A51
:10AB500013441B798C4A127893420ED28B4A1168A7
:10AB600003EB4303DA001144002900F081812246FF
:10AB70002846FFF77BFB0346C6E7911D8B4280F218
:10AB800075819B1A03EB4303DA0081491144EBE71B
:10AB90006378092B00F29180DFE803F07D6D8F5D13
:10ABA0008F05578F1420204600F05CFB6188C9B2E6
:10ABB000284600F0A9FD734A137843F0020313708E
:10ABC0000123A1E76F4B5B7802AA02F8023D012343
:10ABD0002146284600F0F2FA012395E76688F6B28E
:10ABE000684B5B78DBB2B34207D0664B5B7863B9E6
:10ABF000BEB9684B0BB1AFF30080624B5E7021466B
:10AC0000284600F0BFFA01237EE7284600F028FE20
:10AC10005C4F97F802802846FFF7E0FA87F8028039
:10AC2000E6E731462846FFF72FFB034638B9534A7B
:10AC3000126812F0010F3FF467AF00BE64E7564B95
:10AC4000002BDAD0AFF30080D7E721462846FFF784
:10AC5000E7FB034658E76388012B01D0002353E745
:10AC6000484A137843F0080313702146284600F041
:10AC700089FA012348E76388012B01D0002343E7C9
:10AC8000404B1A786FF3C3021A702146284600F031
:10AC900079FA012338E73B4B1A78930803F0020353
:10ACA000C2F34012134302AA22F8023D02232146B6
:10ACB000284600F083FA012326E7304B1B6813F087
:10ACC000010F00F0D98000BE00231DE7A388DBB28E
:10ACD0000F2B00F2D3802B4A13441B792A4A127897
:10ACE000934225D2294A116803EB4303DA00114449
:10ACF000002900F0C78022462846FFF7B7FA03462E
:10AD000000287FF401AF227812F0600F7FF4FCAED0
:10AD100062780A3A012A3FF6F7AE00F09DFA6378AE
:10AD20000A2B10D02146284600F02CFA0123EBE62E
:10AD3000911D8B4280F2A4809B1A03EB4303DA003F
:10AD400013491144D4E702AA002302F8023D01236B
:10AD50002146284600F032FA0123D5E6A188C9B27F
:10AD600001F07F00CE09082818D9044B1B6813F0A6
:10AD7000010F00F0898000BE0023C5E6F0ED00E081
:10AD8000F96C0200047E0020B07D0020AC7D002024
:10AD9000DC3A0C0000000000000000003F4A02EB1B
:10ADA00040023244127D3E48007882420FD23D4834
:10ADB000066802EB4202D0000644A3B1002E65D023
:10ADC000224631462846FFF751FA03469CE6861D87
:10ADD000B24206DA121A02EB4202D000324E0644A8
:10ADE000EBE70026E9E76378012B17D04BB1032B83
:10ADF00014D02E4B1B6813F0010F4BD000BE002364
:10AE000082E62846FFF748FE02AA22F8020D022336
:10AE10002146284600F0D2F9012375E6628822B95E
:10AE2000012B13D02846FFF7E7FD8EB322463146AB
:10AE30002846FFF71BFA002000F00EFA174B93F894
:10AE4000273013F0010F05D001235DE62846FFF7F8
:10AE5000FBFDEAE72146284600F094F9012353E67A
:10AE6000002351E600234FE600234DE600234BE686
:10AE7000002349E6002347E6002345E6002343E696
:10AE8000002341E600233FE600233DE600233BE6A6
:10AE9000012339E6002337E6002335E6047E00204F
:10AEA000B07D0020AC7D0020DC3A0C00F0ED00E02D
:10AEB00030B585B00446FFF73DFB40BB05B030BD63
:10AEC000224601A9284661F0E7F90028F6D09DF84E
:10AED0000530013B072B00F2DB80DFE813F00A00AE
:10AEE0002B00D900B400C50035006C00D20022460A
:10AEF000E7E79DF80400FFF7B3F99DF80820684BD9
:10AF00009A70684B186861F0F5FA0028D6D0654B46
:10AF10001D68B4F1FF3FD3D0002CE8D04FF47A7213
:10AF20000023A002A10D8FF0BBFB02460028C8D170
:10AF30000122C6E79DF80400FFF792F95A4B002B57
:10AF4000DFD0AFF30080DCE7554AD378013BDBB2BA
:10AF5000D370D378002BD4D11346127842F001027B
:10AF60001A7093F826206FF3000283F8262093F8D6
:10AF700026206FF3820283F8262093F827206FF3B0
:10AF8000000283F8272093F827206FF3820283F8CA
:10AF9000272002A99DF80400FFF78CFD0028B0D1FE
:10AFA00000219DF8040000F09BFD80219DF8040025
:10AFB00000F096FDA5E79DF8081001F07F00CD098F
:10AFC000374B03EB40032B4493F826206FF300022A
:10AFD00083F8262093F826206FF3820283F8262038
:10AFE000B8B12F4B03EB40032B441B7D2F4A127843
:10AFF000934216D22E4A126803EB4303D800024450
:10B00000CAB11569039B9DF809209DF80400A84763
:10B0100077E7039B9DF809209DF8040000F030F9C4
:10B020006FE7901D834206DA9B1A03EB4303DA00B5
:10B03000204B1A44E4E7204B1B6813F0010F3FF448
:10B040003DAF00BE3AE7164B1B7813F0010F3FF4FB
:10B0500058AF1A4B002B3FF454AF114B1878C0F384
:10B06000C000AFF300804CE70D4B1B7813F0010FCD
:10B070003FF447AF124B002B3FF443AFAFF30080D8
:10B080003FE7029B002B3FF43CAF0398984738E71B
:10B09000094B1B6813F0010F3FF433AF00BE30E7DC
:10B0A000047E0020407E002000000000B07D0020D3
:10B0B000AC7D0020DC3A0C00F0ED00E00000000068
:10B0C0000000000038B5134B1878134BDBB101F0CA
:10B0D0007F05CC0900F006FC104B03EB450323442D
:10B0E00093F826206FF3410283F8262093F8262058
:10B0F0006FF3000283F8262093F826206FF3820274
:10B1000083F8262038BD064B1B6813F0010FF9D0D9
:10B1100000BEF7E714610020E5B80200047E0020BD
:10B12000F0ED00E0F8B50746134B9E89DD89741BEE
:10B13000A4B2402C28BF402493F90030002B08DB38
:10B140000021AE4215D00D4A23463846FFF706FCD3
:10B15000F8BDAE420BD0084B9968402C01D90020B5
:10B16000F6E72246054890F092FB8021E9E780212E
:10B17000E7E70022E8E700BF047F0020187F0020F7
:10B180007047000038B505460C460B4B1A46086858
:10B19000496803C200229A60DA819A8194F90030EA
:10B1A000934206DB802100231A462846FFF7D6FB90
:10B1B00038BD1146F7E700BF047F0020F8B5074609
:10B1C0000C461E4D2E460868496803C6AA60002139
:10B1D000E981E1888B4228BF0B46AB81E188A9B1A8
:10B1E00003B15AB13846FFF79DFF034600BB144A2E
:10B1F000126812F0010F1BD000BE19E0104B1B6843
:10B2000013F0010F18D000BE002311E094F90030B4
:10B21000002B0FDB802100231A463846FFF79EFBE8
:10B22000034628B9064A126812F0010F00D000BE8A
:10B230001846F8BD0021EEE70023F9E7047F00205F
:10B24000F0ED00E0034B00221A605A609A60DA6069
:10B250001A617047047F0020014B1861704700BFDE
:10B26000047F00200146054B1A460068496803C266
:10B2700000229A60DA819A81704700BF047F002023
:10B2800038B505461C463A4B1B78DB09B3EBD11F9A
:10B2900016D044B1374B1B6813F0010F61D000BECC
:10B2A0000023184638BD324C2146FFF769FF236959
:10B2B000002B58D022460321284698470123F0E767
:10B2C0002B4B93F90030002B07DB294B98680028A3
:10B2D0004BD02246284990F0DAFA254AD38913FA4E
:10B2E00084F39BB2D381916821449160D2889342C8
:10B2F00001D03F2C28D81E4B1B6923B11C4A0221C8
:10B3000028469847B0B11A4B93F90030002B0FDB59
:10B31000802100231A462846FFF720FB0346002819
:10B32000BFD1144A126812F0010FBAD000BEB8E7BC
:10B330000021EEE70021284600F0D2FB80212846BC
:10B3400000F0CEFB0123ACE72846FFF7EBFE0346F7
:10B350000028A6D1074A126812F0010FA1D000BE42
:10B360009FE700239DE701239BE7002399E700BFA8
:10B37000047F0020F0ED00E0187F0020064B1B68E2
:10B38000064A1268082B01D000207047032A01D911
:10B390000020704701207047300100103401001078
:10B3A000064B1B68064A1268082B01D00020704724
:10B3B000032A01D900207047012070473001001096
:10B3C00034010010074B1A6804331B68082A01D0A7
:10B3D00000207047013B022B01D90020704701205B
:10B3E000704700BF3001001042DF704743DF7047F5
:10B3F00044DF704712DF704700B583B043F20403A7
:10B400001A68164B9A420DD04FF08042D2F80C3495
:10B4100003F00103D2F80C2412F4803F17D0D3B903
:10B42000002015E002A8002300F8043DFFF7E2FF2A
:10B430009DF80430002BE7D002A8002340F8043D1B
:10B44000FFF7D6FF0198003018BF012000E0002070
:10B4500003B05DF804FB0120FAE700BFDBE5B15162
:10B4600000B583B0FFF7C8FF78B943F204031A6848
:10B470000E4B9A420CD00E4B00221A601B680193AF
:10B48000019B4FF0804301221A6003B05DF804FB7A
:10B4900002A8002300F8043DFFF7ACFF9DF804303C
:10B4A000002BE8D0FFF7A0FFEFE700BFDBE5B151CD
:10B4B0000001004043F204031A680D4B9A4203D086
:10B4C0000C4B01221A60704700B583B002A800231C
:10B4D00000F8013DFFF78EFF9DF807302BB9054BB3
:10B4E00001221A6003B05DF804FBFFF77FFFF9E764
:10B4F000DBE5B1510400004001230360BFF36F8F0F
:10B50000BFF34F8F074B984203D0043B984200D0C3
:10B510007047BFF35B8F044B002283F82021BFF3F9
:10B520005B8FF5E750700240587F002008B50C4A49
:10B530004FF00101BFF35B8FD2E84F3FC2E84C1FD1
:10B54000BCF1000FF8D1BFF35B8FDBB213B9FFF78B
:10B55000D3FF08BD012201460248FFF735F9F8E79D
:10B56000788000202DB5020070B50E4A02EB401223
:10B57000938AD18A5B1A9BB2118B8B4228BF0B46F0
:10B580001669094A84002518A9000D461144C1F81E
:10B5900000662A44C2F8043604482044FFF7C6FF78
:10B5A00070BD00BF587F0020007002400470024050
:10B5B00070B5334A4FF00101BFF35B8FD2E84F3FC4
:10B5C000C2E8441F002CF9D1BFF35B8FDBB2C3B9D3
:10B5D000082834D12B4BD3F8C02412F4803F1CD15F
:10B5E000294B03EB4013DB7A03B34001264B195878
:10B5F000244BC3F8A017C3F8A4272448FFF77CFF07
:10B600003DE0234B5A68C2F30802003218BF012202
:10B6100001462048FFF7D8F831E0BFF35B8F1A4BA3
:10B62000002283F82021BFF35B8F28E0BFF35B8FFC
:10B63000154B002283F82021BFF35B8F1FE0114BD5
:10B6400000F5947253F8222092B20F4D44012E1946
:10B65000B188F688891B89B28A4228BF0A462E59CA
:10B6600081000D18AC0025461C44C4F800672B442B
:10B67000C3F80427084B03EB8000FFF73DFF70BDC4
:10B680007880002000700240587F002048700240FF
:10B6900000ED00E09DB602002870024008B5C0B27F
:10B6A000FFF786FF08BD0000BFF35B8F0A4B93F8DE
:10B6B0002031BFF35B8F33B9084B1B6813F0010FC8
:10B6C00009D000BE7047BFF35B8F034B002283F8A5
:10B6D0002021BFF35B8F7047587F0020F0ED00E022
:10B6E00070470000014B80225A60704700E100E083
:10B6F000044B8022C3F88420BFF34F8FBFF36F8FBA
:10B70000704700BF00E100E0074BD3F80014D3F806
:10B7100000240A43C3F800240022C3F858214FF440
:10B720008002C3F8042370470070024070B48B7825
:10B7300003F07F02DD098C88C4F30A0405EB42069E
:10B74000434800EB06100481C97801F00301012988
:10B7500030D005BB02F10C04012000FA04F43D498D
:10B76000C1F80443D1F8144590402043C1F81405B2
:10B7700002F59472002041F82200364AC2F81835CA
:10B7800043F48073C2F80C35BFF36F8FBFF34F8F54
:10B79000012070BC7047941C012101FA04F42D486B
:10B7A000C0F80443D0F8104501FA02F22243C0F871
:10B7B0001025E2E7082A07D0274B1B6813F0010F7A
:10B7C00044D000BE0020E4E7FDB9214BB3F81831A6
:10B7D0001BB1204B8022C3F81C251E4B0022C3F84E
:10B7E0005021D3F8003313F4001F02D1194BC3F8D2
:10B7F0005421184B4FF44012C3F80423D3F81425F6
:10B8000042F48072C3F81425BEE7124B0022C3F83D
:10B810002C210F4BB3F808311BB10E4B8022C3F81B
:10B820001C250C4BD3F8003313F4001F03D1094B34
:10B830000022C3F85421074B084AC3F80423D3F865
:10B84000102542F48072C3F810259DE70020A0E780
:10B85000587F002000700240F0ED00E0000820005A
:10B8600038B50546FFF744FF01241AE004F10C0344
:10B87000012202FA03F3A11C8A401343154AC2F8BD
:10B88000083302EB84030021596004F10A0342F8F3
:10B8900023102022104800EB441090F01CF80134D3
:10B8A000E4B2072CE2D90B4C0C4BC4F8083300214E
:10B8B000C4F81C156162A1642022094890F00BF8BD
:10B8C0000123C4F81435C4F810352846FFF70AFFE1
:10B8D00038BD00BF00700240587F002000083000D3
:10B8E0005880002010B401F07F03C909082B2CD028
:10B8F000E1B903F10C04012202FA04F42C48C0F867
:10B900000843D0F814459A4024EA0202C0F81425EE
:10B9100001EB4301274B03EB01110023CB72BFF373
:10B920006F8FBFF34F8F5DF8044B70479C1C012253
:10B9300002FA04F41E48C0F80843D0F810459A40B3
:10B9400024EA0202C0F81025E2E71A4A02EB0112CB
:10B950000020A2F80801F1B9154A4FF48010C2F88E
:10B960000803D2F8140520F48070C2F814050020F2
:10B97000C2F850010E4A0020C2F81C050D4AB2F868
:10B980001801B2F80821D042C2D1094A4FF4001080
:10B99000C2F80803BCE7064A4FF40060C2F8080387
:10B9A000D2F8100520F48070C2F81005E2E700BF5D
:10B9B00000700240587F0020F0B585B001F07F058F
:10B9C000CE0906EB4500404C04EB0014E07A40B190
:10B9D0003E4B1B6813F0010F72D000BE002005B073
:10B9E000F0BD394F06EB450000013C183A50A380EA
:10B9F0000022E28055B9002B38D1354BD3F8803482
:10BA0000C3F3C013B34233D0012300E000230C463C
:10BA100083BB002E4FD106EB45032B4A02EB0313E9
:10BA20000122DA72002D41D0BFF36F8FBFF34F8F29
:10BA300006EB4503244A02EB03139B7A03F0FF0055
:10BA4000002B3FD006EB450302EB0313DB7A03F038
:10BA5000FF04002BC3D006EB450602EB06160023BD
:10BA6000B3722846FFF7A4FD2046B8E70023CEE7CF
:10BA70000023CCE71748FFF759FD174B5968C1F36E
:10BA800008010023CDF80630ADF80A308DF80430F7
:10BA900007228DF805208DF808400393C91A18BFB6
:10BAA000012101A8FEF7CEFD012098E70B48FFF722
:10BAB0003DFD012093E72846FFF756FD01208EE764
:10BAC00000208CE701208AE7587F0020F0ED00E09D
:10BAD000007002405070024000ED00E04C700240E7
